{
  "_format": "hh-sol-artifact-1",
  "contractName": "Raffle",
  "sourceName": "contracts/Raffle.sol",
  "abi": [
    {
      "inputs": [
        {
          "internalType": "address",
          "name": "vrfCoordinatorV2",
          "type": "address"
        },
        {
          "internalType": "uint256",
          "name": "entranceFee",
          "type": "uint256"
        },
        {
          "internalType": "bytes32",
          "name": "gasLane",
          "type": "bytes32"
        },
        {
          "internalType": "uint64",
          "name": "subscriptionId",
          "type": "uint64"
        },
        {
          "internalType": "uint32",
          "name": "callbackGasLimit",
          "type": "uint32"
        },
        {
          "internalType": "uint256",
          "name": "interval",
          "type": "uint256"
        }
      ],
      "stateMutability": "nonpayable",
      "type": "constructor"
    },
    {
      "inputs": [
        {
          "internalType": "address",
          "name": "have",
          "type": "address"
        },
        {
          "internalType": "address",
          "name": "want",
          "type": "address"
        }
      ],
      "name": "OnlyCoordinatorCanFulfill",
      "type": "error"
    },
    {
      "inputs": [],
      "name": "OnlySimulatedBackend",
      "type": "error"
    },
    {
      "inputs": [],
      "name": "Raffle__NotEnoughETHEntered",
      "type": "error"
    },
    {
      "inputs": [],
      "name": "Raffle__NotOpen",
      "type": "error"
    },
    {
      "inputs": [],
      "name": "Raffle__TransferFailed",
      "type": "error"
    },
    {
      "inputs": [
        {
          "internalType": "uint256",
          "name": "currentBalance",
          "type": "uint256"
        },
        {
          "internalType": "uint256",
          "name": "numPlayers",
          "type": "uint256"
        },
        {
          "internalType": "uint256",
          "name": "raffleState",
          "type": "uint256"
        }
      ],
      "name": "Raffle__UpkeepNotNeeded",
      "type": "error"
    },
    {
      "anonymous": false,
      "inputs": [
        {
          "indexed": true,
          "internalType": "address",
          "name": "player",
          "type": "address"
        }
      ],
      "name": "RaffleEnter",
      "type": "event"
    },
    {
      "anonymous": false,
      "inputs": [
        {
          "indexed": true,
          "internalType": "uint256",
          "name": "requestId",
          "type": "uint256"
        }
      ],
      "name": "RequestedRaffleWinner",
      "type": "event"
    },
    {
      "anonymous": false,
      "inputs": [
        {
          "indexed": true,
          "internalType": "address",
          "name": "winner",
          "type": "address"
        }
      ],
      "name": "WinnerPicked",
      "type": "event"
    },
    {
      "inputs": [
        {
          "internalType": "bytes",
          "name": "",
          "type": "bytes"
        }
      ],
      "name": "checkUpkeep",
      "outputs": [
        {
          "internalType": "bool",
          "name": "upkeepNeeded",
          "type": "bool"
        },
        {
          "internalType": "bytes",
          "name": "",
          "type": "bytes"
        }
      ],
      "stateMutability": "view",
      "type": "function"
    },
    {
      "inputs": [],
      "name": "enterRaffle",
      "outputs": [],
      "stateMutability": "payable",
      "type": "function"
    },
    {
      "inputs": [],
      "name": "getEntranceFee",
      "outputs": [
        {
          "internalType": "uint256",
          "name": "",
          "type": "uint256"
        }
      ],
      "stateMutability": "view",
      "type": "function"
    },
    {
      "inputs": [],
      "name": "getInterval",
      "outputs": [
        {
          "internalType": "uint256",
          "name": "",
          "type": "uint256"
        }
      ],
      "stateMutability": "view",
      "type": "function"
    },
    {
      "inputs": [],
      "name": "getLatestTimeStamp",
      "outputs": [
        {
          "internalType": "uint256",
          "name": "",
          "type": "uint256"
        }
      ],
      "stateMutability": "view",
      "type": "function"
    },
    {
      "inputs": [],
      "name": "getNumWords",
      "outputs": [
        {
          "internalType": "uint256",
          "name": "",
          "type": "uint256"
        }
      ],
      "stateMutability": "pure",
      "type": "function"
    },
    {
      "inputs": [],
      "name": "getNumberOfPlayers",
      "outputs": [
        {
          "internalType": "uint256",
          "name": "",
          "type": "uint256"
        }
      ],
      "stateMutability": "view",
      "type": "function"
    },
    {
      "inputs": [
        {
          "internalType": "uint256",
          "name": "index",
          "type": "uint256"
        }
      ],
      "name": "getPlayer",
      "outputs": [
        {
          "internalType": "address",
          "name": "",
          "type": "address"
        }
      ],
      "stateMutability": "view",
      "type": "function"
    },
    {
      "inputs": [],
      "name": "getRaffleState",
      "outputs": [
        {
          "internalType": "enum Raffle.RaffleState",
          "name": "",
          "type": "uint8"
        }
      ],
      "stateMutability": "view",
      "type": "function"
    },
    {
      "inputs": [],
      "name": "getRecentWinner",
      "outputs": [
        {
          "internalType": "address",
          "name": "",
          "type": "address"
        }
      ],
      "stateMutability": "view",
      "type": "function"
    },
    {
      "inputs": [],
      "name": "getRequestConfirmations",
      "outputs": [
        {
          "internalType": "uint256",
          "name": "",
          "type": "uint256"
        }
      ],
      "stateMutability": "pure",
      "type": "function"
    },
    {
      "inputs": [
        {
          "internalType": "bytes",
          "name": "",
          "type": "bytes"
        }
      ],
      "name": "performUpkeep",
      "outputs": [],
      "stateMutability": "nonpayable",
      "type": "function"
    },
    {
      "inputs": [
        {
          "internalType": "uint256",
          "name": "requestId",
          "type": "uint256"
        },
        {
          "internalType": "uint256[]",
          "name": "randomWords",
          "type": "uint256[]"
        }
      ],
      "name": "rawFulfillRandomWords",
      "outputs": [],
      "stateMutability": "nonpayable",
      "type": "function"
    }
  ],
  "bytecode": "0x6101606040523480156200001257600080fd5b5060405162001a6c38038062001a6c8339818101604052810190620000389190620001c2565b858073ffffffffffffffffffffffffffffffffffffffff1660808173ffffffffffffffffffffffffffffffffffffffff1660601b81525050508460a081815250508573ffffffffffffffffffffffffffffffffffffffff1660c08173ffffffffffffffffffffffffffffffffffffffff1660601b815250508360e081815250508267ffffffffffffffff166101008167ffffffffffffffff1660c01b815250508163ffffffff166101208163ffffffff1660e01b8152505060006001811115620001075762000106620002ca565b5b600160146101000a81548160ff021916908360018111156200012e576200012d620002ca565b5b02179055504260028190555080610140818152505050505050505062000380565b6000815190506200016081620002fe565b92915050565b600081519050620001778162000318565b92915050565b6000815190506200018e8162000332565b92915050565b600081519050620001a5816200034c565b92915050565b600081519050620001bc8162000366565b92915050565b60008060008060008060c08789031215620001e257620001e1620002f9565b5b6000620001f289828a016200014f565b96505060206200020589828a016200017d565b95505060406200021889828a0162000166565b94505060606200022b89828a01620001ab565b93505060806200023e89828a0162000194565b92505060a06200025189828a016200017d565b9150509295509295509295565b60006200026b826200027c565b9050919050565b6000819050919050565b600073ffffffffffffffffffffffffffffffffffffffff82169050919050565b6000819050919050565b600063ffffffff82169050919050565b600067ffffffffffffffff82169050919050565b7f4e487b7100000000000000000000000000000000000000000000000000000000600052602160045260246000fd5b600080fd5b62000309816200025e565b81146200031557600080fd5b50565b620003238162000272565b81146200032f57600080fd5b50565b6200033d816200029c565b81146200034957600080fd5b50565b6200035781620002a6565b81146200036357600080fd5b50565b6200037181620002b6565b81146200037d57600080fd5b50565b60805160601c60a05160c05160601c60e0516101005160c01c6101205160e01c61014051611670620003fc600039600081816107f601526108e2015260006106a50152600061068201526000610661015260006106250152600081816102fa01526103f7015260008181610337015261038b01526116706000f3fe6080604052600436106100c25760003560e01c8063473f1ddc1161007f5780636e04ff0d116100595780636e04ff0d1461022557806391ad27b414610263578063e55ae4e81461028e578063fd6673f5146102cb576100c2565b8063473f1ddc146101a457806353a2c19a146101cf5780635f1b0fd8146101fa576100c2565b806309bc33a7146100c7578063115cbaf5146100f25780631fe543e31461011d5780632cfcc53914610146578063320229eb146101505780634585e33b1461017b575b600080fd5b3480156100d357600080fd5b506100dc6102f6565b6040516100e9919061122b565b60405180910390f35b3480156100fe57600080fd5b5061010761031e565b60405161011491906111e0565b60405180910390f35b34801561012957600080fd5b50610144600480360381019061013f9190610f9b565b610335565b005b61014e6103f5565b005b34801561015c57600080fd5b50610165610564565b604051610172919061122b565b60405180910390f35b34801561018757600080fd5b506101a2600480360381019061019d9190610eab565b61056e565b005b3480156101b057600080fd5b506101b961076d565b6040516101c69190611119565b60405180910390f35b3480156101db57600080fd5b506101e4610797565b6040516101f1919061122b565b60405180910390f35b34801561020657600080fd5b5061020f6107a6565b60405161021c919061122b565b60405180910390f35b34801561023157600080fd5b5061024c60048036038101906102479190610ef8565b6107b3565b60405161025a92919061115d565b60405180910390f35b34801561026f57600080fd5b506102786108de565b604051610285919061122b565b60405180910390f35b34801561029a57600080fd5b506102b560048036038101906102b09190610f41565b610906565b6040516102c29190611119565b60405180910390f35b3480156102d757600080fd5b506102e061094d565b6040516102ed919061122b565b60405180910390f35b60007f0000000000000000000000000000000000000000000000000000000000000000905090565b6000600160149054906101000a900460ff16905090565b7f000000000000000000000000000000000000000000000000000000000000000073ffffffffffffffffffffffffffffffffffffffff163373ffffffffffffffffffffffffffffffffffffffff16146103e757337f00000000000000000000000000000000000000000000000000000000000000006040517f1cf993f40000000000000000000000000000000000000000000000000000000081526004016103de929190611134565b60405180910390fd5b6103f18282610959565b5050565b7f000000000000000000000000000000000000000000000000000000000000000034101561044f576040517fbd4e069500000000000000000000000000000000000000000000000000000000815260040160405180910390fd5b6000600181111561046357610462611521565b5b600160149054906101000a900460ff16600181111561048557610484611521565b5b146104bc576040517f1425571c00000000000000000000000000000000000000000000000000000000815260040160405180910390fd5b6000339080600181540180825580915050600190039060005260206000200160009091909190916101000a81548173ffffffffffffffffffffffffffffffffffffffff021916908373ffffffffffffffffffffffffffffffffffffffff1602179055503373ffffffffffffffffffffffffffffffffffffffff167f0805e1d667bddb8a95f0f09880cf94f403fb596ce79928d9f29b74203ba284d460405160405180910390a2565b6000600254905090565b6000610588604051806020016040528060008152506107b3565b509050806105f75747600080549050600160149054906101000a900460ff1660018111156105b9576105b8611521565b5b6040517f584327aa0000000000000000000000000000000000000000000000000000000081526004016105ee93929190611246565b60405180910390fd5b60018060146101000a81548160ff0219169083600181111561061c5761061b611521565b5b021790555060007f000000000000000000000000000000000000000000000000000000000000000073ffffffffffffffffffffffffffffffffffffffff16635d3b1d307f00000000000000000000000000000000000000000000000000000000000000007f000000000000000000000000000000000000000000000000000000000000000060037f000000000000000000000000000000000000000000000000000000000000000060016040518663ffffffff1660e01b81526004016106e695949392919061118d565b602060405180830381600087803b15801561070057600080fd5b505af1158015610714573d6000803e3d6000fd5b505050506040513d601f19601f820116820180604052508101906107389190610f6e565b9050807fcd6e45c8998311cab7e9d4385596cac867e20a0587194b954fa3a731c93ce78b60405160405180910390a250505050565b6000600160009054906101000a900473ffffffffffffffffffffffffffffffffffffffff16905090565b6000600163ffffffff16905090565b6000600361ffff16905090565b600060606000600160149054906101000a900460ff1660018111156107db576107da611521565b5b600060018111156107ef576107ee611521565b5b14905060007f0000000000000000000000000000000000000000000000000000000000000000600254426108239190611342565b119050600080600080549050119050600080471190508380156108435750825b801561084c5750815b80156108555750805b95506108966040518060400160405280600881526020017f69734f70656e3a2000000000000000000000000000000000000000000000000081525085610b8a565b6108d56040518060400160405280600c81526020017f74696d655061737365643a20000000000000000000000000000000000000000081525084610b8a565b50505050915091565b60007f0000000000000000000000000000000000000000000000000000000000000000905090565b600080828154811061091b5761091a611550565b5b9060005260206000200160009054906101000a900473ffffffffffffffffffffffffffffffffffffffff169050919050565b60008080549050905090565b600080805490508260008151811061097457610973611550565b5b60200260200101516109869190611492565b9050600080828154811061099d5761099c611550565b5b9060005260206000200160009054906101000a900473ffffffffffffffffffffffffffffffffffffffff16905080600160006101000a81548173ffffffffffffffffffffffffffffffffffffffff021916908373ffffffffffffffffffffffffffffffffffffffff1602179055506000600160146101000a81548160ff02191690836001811115610a3157610a30611521565b5b0217905550600067ffffffffffffffff811115610a5157610a5061157f565b5b604051908082528060200260200182016040528015610a7f5781602001602082028036833780820191505090505b5060009080519060200190610a95929190610c6c565b504260028190555060008173ffffffffffffffffffffffffffffffffffffffff1647604051610ac390611104565b60006040518083038185875af1925050503d8060008114610b00576040519150601f19603f3d011682016040523d82523d6000602084013e610b05565b606091505b5050905080610b40576040517fa1d04b3900000000000000000000000000000000000000000000000000000000815260040160405180910390fd5b8173ffffffffffffffffffffffffffffffffffffffff167f5b690ec4a06fe979403046eaeea5b3ce38524683c3001f662c8b5a829632f7df60405160405180910390a25050505050565b610c228282604051602401610ba09291906111fb565b6040516020818303038152906040527fc3b55635000000000000000000000000000000000000000000000000000000007bffffffffffffffffffffffffffffffffffffffffffffffffffffffff19166020820180517bffffffffffffffffffffffffffffffffffffffffffffffffffffffff8381831617835250505050610c26565b5050565b610c3d81610c35610c40610c61565b63ffffffff16565b50565b60006a636f6e736f6c652e6c6f679050600080835160208501845afa505050565b610cf6819050919050565b828054828255906000526020600020908101928215610ce5579160200282015b82811115610ce45782518260006101000a81548173ffffffffffffffffffffffffffffffffffffffff021916908373ffffffffffffffffffffffffffffffffffffffff16021790555091602001919060010190610c8c565b5b509050610cf29190610d00565b5090565b610cfe6115ae565b565b5b80821115610d19576000816000905550600101610d01565b5090565b6000610d30610d2b846112a2565b61127d565b90508083825260208201905082856020860282011115610d5357610d526115e7565b5b60005b85811015610d835781610d698882610e81565b845260208401935060208301925050600181019050610d56565b5050509392505050565b6000610da0610d9b846112ce565b61127d565b905082815260208101848484011115610dbc57610dbb6115ec565b5b610dc784828561141f565b509392505050565b600082601f830112610de457610de36115e2565b5b8135610df4848260208601610d1d565b91505092915050565b60008083601f840112610e1357610e126115e2565b5b8235905067ffffffffffffffff811115610e3057610e2f6115dd565b5b602083019150836001820283011115610e4c57610e4b6115e7565b5b9250929050565b600082601f830112610e6857610e676115e2565b5b8135610e78848260208601610d8d565b91505092915050565b600081359050610e9081611623565b92915050565b600081519050610ea581611623565b92915050565b60008060208385031215610ec257610ec16115f6565b5b600083013567ffffffffffffffff811115610ee057610edf6115f1565b5b610eec85828601610dfd565b92509250509250929050565b600060208284031215610f0e57610f0d6115f6565b5b600082013567ffffffffffffffff811115610f2c57610f2b6115f1565b5b610f3884828501610e53565b91505092915050565b600060208284031215610f5757610f566115f6565b5b6000610f6584828501610e81565b91505092915050565b600060208284031215610f8457610f836115f6565b5b6000610f9284828501610e96565b91505092915050565b60008060408385031215610fb257610fb16115f6565b5b6000610fc085828601610e81565b925050602083013567ffffffffffffffff811115610fe157610fe06115f1565b5b610fed85828601610dcf565b9150509250929050565b61100081611376565b82525050565b61100f81611388565b82525050565b61101e81611394565b82525050565b600061102f826112ff565b6110398185611315565b935061104981856020860161142e565b611052816115fb565b840191505092915050565b6110668161140d565b82525050565b60006110778261130a565b6110818185611331565b935061109181856020860161142e565b61109a816115fb565b840191505092915050565b60006110b2600083611326565b91506110bd8261160c565b600082019050919050565b6110d1816113b1565b82525050565b6110e0816113df565b82525050565b6110ef816113e9565b82525050565b6110fe816113f9565b82525050565b600061110f826110a5565b9150819050919050565b600060208201905061112e6000830184610ff7565b92915050565b60006040820190506111496000830185610ff7565b6111566020830184610ff7565b9392505050565b60006040820190506111726000830185611006565b81810360208301526111848184611024565b90509392505050565b600060a0820190506111a26000830188611015565b6111af60208301876110f5565b6111bc60408301866110c8565b6111c960608301856110e6565b6111d660808301846110e6565b9695505050505050565b60006020820190506111f5600083018461105d565b92915050565b60006040820190508181036000830152611215818561106c565b90506112246020830184611006565b9392505050565b600060208201905061124060008301846110d7565b92915050565b600060608201905061125b60008301866110d7565b61126860208301856110d7565b61127560408301846110d7565b949350505050565b6000611287611298565b90506112938282611461565b919050565b6000604051905090565b600067ffffffffffffffff8211156112bd576112bc61157f565b5b602082029050602081019050919050565b600067ffffffffffffffff8211156112e9576112e861157f565b5b6112f2826115fb565b9050602081019050919050565b600081519050919050565b600081519050919050565b600082825260208201905092915050565b600081905092915050565b600082825260208201905092915050565b600061134d826113df565b9150611358836113df565b92508282101561136b5761136a6114c3565b5b828203905092915050565b6000611381826113bf565b9050919050565b60008115159050919050565b6000819050919050565b60008190506113ac8261160f565b919050565b600061ffff82169050919050565b600073ffffffffffffffffffffffffffffffffffffffff82169050919050565b6000819050919050565b600063ffffffff82169050919050565b600067ffffffffffffffff82169050919050565b60006114188261139e565b9050919050565b82818337600083830152505050565b60005b8381101561144c578082015181840152602081019050611431565b8381111561145b576000848401525b50505050565b61146a826115fb565b810181811067ffffffffffffffff821117156114895761148861157f565b5b80604052505050565b600061149d826113df565b91506114a8836113df565b9250826114b8576114b76114f2565b5b828206905092915050565b7f4e487b7100000000000000000000000000000000000000000000000000000000600052601160045260246000fd5b7f4e487b7100000000000000000000000000000000000000000000000000000000600052601260045260246000fd5b7f4e487b7100000000000000000000000000000000000000000000000000000000600052602160045260246000fd5b7f4e487b7100000000000000000000000000000000000000000000000000000000600052603260045260246000fd5b7f4e487b7100000000000000000000000000000000000000000000000000000000600052604160045260246000fd5b7f4e487b7100000000000000000000000000000000000000000000000000000000600052605160045260246000fd5b600080fd5b600080fd5b600080fd5b600080fd5b600080fd5b600080fd5b6000601f19601f8301169050919050565b50565b600281106116205761161f611521565b5b50565b61162c816113df565b811461163757600080fd5b5056fea264697066735822122038a00282c3f35949653c324a4aa3b27900c3f42284639de4eacb449434056db764736f6c63430008070033",
  "linkReferences": {},
  "deployedLinkReferences": {}
}